:0400000080311E2805
:100008007E14803100308600003087002E008F1E5D
:100018000E280F281C2822001908F9009D1C1528F5
:10002800162818281D121D16790882310B228031D6
:100038007E10090080312028F001F101F201F3015E
:10004800F40143308400003085001C308431F924E9
:1000580080317E1020008331DB2B20004308A8006C
:10006800A9014408AA00AB012A08AB00AA01280884
:100078002A04AD0029082B04AE004508A800A901F0
:100088004608AA00AB012A08AB00AA0128082A04DE
:10009800AF0029082B04B0002D08243EB900FA301F
:1000A8002E3DBA002F08243EBB00FA30303DBC007C
:1000B8003A08803AA8007F302802031D6528FC30E2
:1000C8003902031C682869287A2820003A08803AEF
:1000D800A80080302802031D732805303902031850
:1000E800762877287A282000B901BA0120003C0830
:1000F800803AA8007F302802031D8428FC303B0288
:10010800031C87288828992820003C08803AA800E2
:1001180080302802031D922805303B0203189528D9
:10012800962899282000BB01BC0105302000A000BA
:100138000030A1003A08A3003908A20082319422B5
:10014800803120002108B6002008B5000530A00045
:100158000030A1003C08A3003B08A2008231942291
:10016800803120002108B8002008B700370835077B
:10017800BD003808363DBE0037083502BF003808D4
:10018800363BC0003E08803AA80080302802031D94
:10019800CF2865303D02031CD228D328D8286430E4
:1001A8002000BD000030BE0020003E08803AA800B4
:1001B8007F302802031DE2289C303D020318E52801
:1001C800E628EB289C302000BD00FF30BE00200050
:1001D8004008803AA80080302802031DF5286530C1
:1001E8003F02031CF828F928FE2864302000BF00CD
:1001F8000030C00020004008803AA8007F30280264
:10020800031D08299C303F0203180B290C291129CA
:100218009C302000BF00FF30C00020003D083E0495
:10022800031D172918291B29B101B20134293E08D9
:10023800803AA80080302802031D242901303D029D
:10024800031C272928292E2901302000B1003D0848
:10025800B200342902302000B1003D03FF3AB20059
:100268003F084004031D39293A293D29B301B40147
:1002780056294008803AA80080302802031D4629E4
:1002880001303F02031C49294A2950290130200026
:10029800B3003F08B400562902302000B3003F03E2
:1002A800FF3AB4003208A1003308A2003408A300C2
:1002B8003108833176238031080020004D08A200E0
:1002C800A3014E08A400A5012408A500A401220842
:1002D8002404A70023082504A800D03027060730E7
:1002E80003192806031D79297A29AF2921000D0849
:1002F8002000A200A3012208A300A2012208D8001E
:100308002308D90021000C0820005807A20059082A
:100318000318590AA300FF302205A400033023055F
:10032800A5002408D8002508D9000130590250300A
:10033800031958020318A129A229AD29013059022D
:10034800263003195802031CAA29AB29AD29161116
:100358000A2A16150A2AE830270603300319280640
:10036800031DB729B8290A2A16115308A200A301A8
:100378005408A400A5012408A500A4012208240407
:10038800AA0023082504AB0004302B02903003197F
:100398002A020318D029D129D4290130A900062A14
:1003A80005302B02363003192A020318DC29DD290F
:1003B800E0290230A900062A05302B02DD30031996
:1003C8002A020318E829E929EC290330A900062A9A
:1003D80006302B02843003192A020318F429F52960
:1003E800F8290430A900062A07302B022A300319FD
:1003F8002A020318002A012A042A0530A900062A1D
:100408000630A90029088331AA2381310800F800A1
:10041800742AFE307806031D122A132A932A013003
:10042800F200932A1930780603191B2A1C2A1E2A5F
:10043800F201932A0230F200932A7808F500F601B7
:1004480075082000DC007608DD000330F200932AEE
:100458007808F500F6017508F600F5017508200022
:10046800DC047608DD040430F200932A7808F500ED
:10047800F6017508F0007608F1000530F200932ABD
:100488007808F500F6017508F600F5017508F0041E
:100498007608F1042000DA01DB0170087104031DFD
:1004A800562A572A5B2A8431A92482311C2A06300D
:1004B800F200932A20005A08433E860087017808F4
:1004C80081000130DA070030DB3D71085B02031D53
:1004D8006F2A70085A02031C722A732A932A572A11
:1004E8007208F500F6017608003A03197C2A1C2ADE
:1004F8007508003A03190D2A013A0319162A033A16
:100508000319212A013A03192C2A073A03193A2A0E
:10051800013A0319442A033A03195E2A1C2A0800DF
:100528002000A501A11F992A9A2AA12AA009A10998
:10053800A00A0319A10A0130A500A31FA42AA52A0D
:10054800AC2AA209A309A20A0319A30A0130A50625
:10055800A601A701200821040319B32AB42AE12A15
:100568000130A400BE2A0130A035A10D890BB82A9C
:100578000130A407A11FC12AC22AB72A0130A63513
:10058800A70D890BC32A21082302031DCD2A2008A1
:100598002202031CD02AD12AD62A2008A202210826
:1005A800A33B26140130A136A00C890BD72A0130B1
:1005B800A402031DE02AE12AC22A25080319E52A14
:1005C800E62AEB2AA609A709A60A0319A70A2708F3
:1005D800A1002608A000080020005108A200A301DD
:1005E8005208A400A5012408A500A4012208240497
:1005F800A80023082504A900E830280603300319B9
:100608002906031D082B092B0A2B402BD03028065E
:10061800073003192906031D122B132B402B5508ED
:10062800A200A3015608A400A5012408A500A4015E
:1006380022082404AA0023082504AB0005302B0255
:10064800363003192A0203182A2B2B2B2E2B0130A4
:10065800A7003C2B06302B02833003192A0203180B
:10066800362B372B3A2B0230A7003C2B0330A70040
:100678002708843108248231080020004708A20096
:10068800A3014808A400A5012408A500A401220884
:100698002404A70023082504A8005E08A900063042
:1006A8002802D63003192702031C5B2B5C2B5F2B17
:1006B8000130A900692B04302802E330031927020E
:1006C8000318672B682B692BA90129085E060319F3
:1006D8006E2B6F2B752B2908DE005E0884314F24A2
:1006E800833108002000A400FE308431ED248331DA
:1006F80019308431ED24833101308431ED24833184
:1007080006308431ED24833104308431ED24833183
:1007180000308431ED248331200024088431ED2415
:100728008331200021088431ED2483312000220800
:100738008431ED248331200023088431ED24833172
:1007480022009E1CA82BA92BA42B08002000A10086
:10075800FE308431ED24833119308431ED24833126
:1007680001308431ED2483310A308431ED24833122
:1007780004308431ED24833100308431ED24833119
:1007880003308431ED24833100308431ED2483310A
:10079800200021088431ED24833100308431ED2498
:1007A800833122009E1CD92BDA2BD52B08008431EB
:1007B800DD24833184312D24833105302000C200AB
:1007C8000F30C100F130890BE72BC10BE72BC20BAF
:1007D800E72B84318B24833173080319F42BF52B11
:1007E800E12BF30180313120833184316D24833151
:1007F8008231F02283318331412383318131612178
:100808008331E12B80311E282000A100FE30843185
:10081800ED24843119308431ED248431033084315E
:10082800ED2484310A308431ED248431013084315F
:10083800ED24843100308431ED24843120002108F6
:100848008431ED24843122009E1C2B2C2C2C272C47
:10085800080022001E129D179E161D1655303D00D9
:100868008F00AA308F000F10200013133E004E1384
:100878001030A600200093163E00CE1215303D0021
:10088800CB0022001E159F1544309B002E009916A0
:100898000B178B1708002000A100961421080319D4
:1008A800562C572C612C15302000A000C630890B1F
:1008B8005B2CA00B5B2C00006A2C0B302000A000E6
:1008C8006230890B652CA00B652C00002000961067
:1008D800080020004B08A000A1014C08A200A301B9
:1008E8002208A300A20120082204A500210823044D
:1008F800A600E83025060330031926060319852CBF
:10090800882C200016148A2C200016100800FE30AF
:100918008431ED24843119308431ED24843101305F
:100928008431ED24843105308431ED248431003064
:100938008431ED24843100308431ED248431220067
:100948009E1CA72CA82CA32C0800B02C0130F40066
:10095800C32C0130F300C32C20005D08043A0319AE
:10096800B92C013A0319BE2CC32C5C08023A0319AE
:10097800AA2CC32C5C08023A0319AD2CC32C08001E
:100988003E0038112000111116113E0043142000BA
:1009980012143F3021009804FC309A051A120830CE
:1009A8009E0001309D00931713150B178B17131416
:1009B8000800200011103E00381020001610911673
:1009C8003E00B8128431FF2484318431C424843138
:1009D80008002000A0002E000F1EF32CF42CEF2C92
:1009E8002000200822009A000800640080010131DC
:1009F800890BFA2C00343E00B81020009110961094
:020A08000800E4
:020000040001F9
:0A000E008C1FFF3F9F3FFF3FFF3FA5
:00000001FF
