:0400000080311E2805
:100008007E14803100308600003087002E008F1E5D
:100018000E280F281C2822001908F9009D1C1528F5
:10002800162818281D121D16790882310A228031D7
:100038007E10090080312028F001F101F201F3015E
:10004800F40143308400003085001C308431F824EA
:1000580080317E1020008331DA2B20004308A8006D
:10006800A9014408AA00AB012A08AB00AA01280884
:100078002A04AD0029082B04AE004508A800A901F0
:100088004608AA00AB012A08AB00AA0128082A04DE
:10009800AF0029082B04B0002D08243EB900FA301F
:1000A8002E3DBA002F08243EBB00FA30303DBC007C
:1000B8003A08803AA8007F302802031D6528FC30E2
:1000C8003902031C682869287A2820003A08803AEF
:1000D800A80080302802031D732805303902031850
:1000E800762877287A282000B901BA0120003C0830
:1000F800803AA8007F302802031D8428FC303B0288
:10010800031C87288828992820003C08803AA800E2
:1001180080302802031D922805303B0203189528D9
:10012800962899282000BB01BC0105302000A000BA
:100138000030A1003A08A3003908A20082319322B6
:10014800803120002108B6002008B5000530A00045
:100158000030A1003C08A3003B08A2008231932292
:10016800803120002108B8002008B700370835077B
:10017800BD003808363DBE0037083502BF003808D4
:10018800363BC0003E08803AA80080302802031D94
:10019800CF2865303D02031CD228D328D8286430E4
:1001A8002000BD000030BE0020003E08803AA800B4
:1001B8007F302802031DE2289C303D020318E52801
:1001C800E628EB289C302000BD00FF30BE00200050
:1001D8004008803AA80080302802031DF5286530C1
:1001E8003F02031CF828F928FE2864302000BF00CD
:1001F8000030C00020004008803AA8007F30280264
:10020800031D08299C303F0203180B290C291129CA
:100218009C302000BF00FF30C00020003D083E0495
:10022800031D172918291B29B101B20134293E08D9
:10023800803AA80080302802031D242901303D029D
:10024800031C272928292E2901302000B1003D0848
:10025800B200342902302000B1003D03FF3AB20059
:100268003F084004031D39293A293D29B301B40147
:1002780056294008803AA80080302802031D4629E4
:1002880001303F02031C49294A2950290130200026
:10029800B3003F08B400562902302000B3003F03E2
:1002A800FF3AB4003208A1003308A2003408A300C2
:1002B8003108833175238031080020004D08A200E1
:1002C800A3014E08A400A5012408A500A401220842
:1002D8002404A70023082504A800D03027060730E7
:1002E80003192806031D79297A29AF2921000D0849
:1002F8002000A200A3012208A300A2012208D8001E
:100308002308D90021000C0820005807A20059082A
:100318000318590AA300FF302205A400033023055F
:10032800A5002408D8002508D90001305902433017
:10033800031958020318A129A229AD29013059022D
:100348003A3003195802031CAA29AB29AD29161102
:10035800092A1615092AE830270603300319280642
:10036800031DB729B829092A5308A200A301540874
:10037800A400A5012408A500A40122082404AA00B9
:1003880023082504AB0004302B02903003192A02FD
:100398000318CF29D029D3290130A900052A05300F
:1003A8002B02363003192A020318DB29DC29DF293E
:1003B8000230A900052A05302B02DD3003192A0274
:1003C8000318E729E829EB290330A900052A063094
:1003D8002B02843003192A020318F329F429F72978
:1003E8000430A900052A07302B022A3003192A02F3
:1003F8000318FF29002A032A0530A900052A063018
:10040800A90029088331A92381310800F800732A3B
:10041800FE307806031D112A122A922A0130F200B2
:10042800922A1930780603191A2A1B2A1D2AF20162
:10043800922A0230F200922A7808F500F60175082F
:100448002000DC007608DD000330F200922A7808EC
:10045800F500F6017508F600F50175082000DC04C2
:100468007608DD040430F200922A7808F500F601D7
:100478007508F0007608F1000530F200922A780835
:10048800F500F6017508F600F5017508F004760820
:10049800F1042000DA01DB0170087104031D552AFC
:1004A800562A5A2A8431A82482311B2A0630F2009F
:1004B800922A20005A08433E860087017808810066
:1004C8000130DA070030DB3D71085B02031D6E2A3C
:1004D80070085A02031C712A722A922A562A720834
:1004E800F500F6017608003A03197B2A1B2A7508DD
:1004F800003A03190C2A013A0319152A033A031979
:10050800202A013A03192B2A073A0319392A013AF2
:100518000319432A033A03195D2A1B2A08002000FD
:10052800A501A11F982A992AA02AA009A109A00A11
:100538000319A10A0130A500A31FA32AA42AAB2AE4
:10054800A209A309A20A0319A30A0130A506A60154
:10055800A701200821040319B22AB32AE02A01308E
:10056800A400BD2A0130A035A10D890BB72A01309E
:10057800A407A11FC02AC12AB62A0130A635A70D93
:10058800890BC22A21082302031DCC2A2008220233
:10059800031CCF2AD02AD52A2008A2022108A33B6F
:1005A80026140130A136A00C890BD62A0130A402EA
:1005B800031DDF2AE02AC12A25080319E42AE52AAF
:1005C800EA2AA609A709A60A0319A70A2708A10063
:1005D8002608A000080020005108A200A301520824
:1005E800A400A5012408A500A40122082404A80049
:1005F80023082504A900E830280603300319290632
:10060800031D072B082B092B3F2BD030280607305A
:1006180003192906031D112B122B3F2B5508A20085
:10062800A3015608A400A5012408A500A4012208D6
:100638002404AA0023082504AB0005302B02363019
:1006480003192A020318292B2A2B2D2B0130A70066
:100658003B2B06302B02833003192A020318352B53
:10066800362B392B0230A7003B2B0330A700270875
:10067800843107248231080020004708A200A30122
:100688004808A400A5012408A500A4012208240400
:10069800A70023082504A8005E08A9000630280240
:1006A800D63003192702031C5A2B5B2B5E2B013013
:1006B800A900682B04302802E33003192702031825
:1006C800662B672B682BA90129085E0603196D2B79
:1006D8006E2B742B2908DE005E0884314E2483318A
:1006E80008002000A400FE308431EC248331193046
:1006F8008431EC24833101308431EC248331063099
:100708008431EC24833104308431EC24833100308B
:100718008431EC248331200024088431EC24833193
:10072800200021088431EC24833120002208843100
:10073800EC248331200023088431EC248331220007
:100748009E1CA72BA82BA32B08002000A100FE307D
:100758008431EC24833119308431EC248331013025
:100768008431EC2483310A308431EC248331043021
:100778008431EC24833100308431EC24833103301C
:100788008431EC24833100308431EC24833120001F
:1007980021088431EC24833100308431EC24833106
:1007A80022009E1CD82BD92BD42B08008431DC24A2
:1007B800833184312C24833105302000C2000F306E
:1007C800C100F130890BE62BC10BE62BC20BE62BDF
:1007D80084318A24833173080319F32BF42BE02B1B
:1007E800F30180313120833184316C2483318231AB
:1007F800EF22833183314023833181316121833179
:10080800E02B80311E282000A100FE308431EC242A
:10081800843119308431EC24843103308431EC2460
:1008280084310A308431EC24843101308431EC2461
:10083800843100308431EC24843120002108843153
:10084800EC24843122009E1C2A2C2B2C262C0800F8
:1008580022001E129D179E161D1655303D008F0052
:10086800AA308F000F10200013133E004E131030D3
:10087800A600200093163E00CE1215303D00CB0096
:1008880022001E159F1544309B002E0099160B1749
:100898008B1708002000A100961421080319552C75
:1008A800562C602C15302000A000C630890B5A2C1D
:1008B800A00B5A2C0000692C0B302000A0006230DD
:1008C800890B642CA00B642C0000200096100800F3
:1008D80020004B08A000A1014C08A200A301220897
:1008E800A300A20120082204A50021082304A600D1
:1008F800E83025060330031926060319842C872CB3
:1009080020001614892C200016100800FE308431AF
:10091800EC24843119308431EC2484310130843161
:10092800EC24843105308431EC2484310030843166
:10093800EC24843100308431EC24843122009E1C64
:10094800A62CA72CA22C0800AF2C0130F400C22C36
:100958000130F300C22C20005D08043A0319B82CBA
:10096800013A0319BD2CC22C5C08023A0319A92CC0
:10097800C22C5C08023A0319AC2CC22C08003E00B9
:1009880038112000111116113E00431420001214D2
:100998003F3021009804FC309A051A1208309E0056
:1009A80001309D00931713150B178B1713140800AC
:1009B800200011103E0038102000161091163E003D
:1009C800B8128431FE2484318431C3248431080070
:1009D8002000A0002E000F1EF22CF32CEE2C20007D
:1009E800200822009A000800640080010131890B68
:1009F800F92C00343E00B810200091109610080021
:020000040001F9
:0A000E008C1FFF3F9F3FFF3FFF3FA5
:00000001FF
