:0400000080312628FD
:100008007E14803100308600003087002E008F1E5D
:100018000E280F281C2822001908F9009D1C1528F5
:10002800162818281D121D16790885310B258031D0
:100038002E00901C2028212824288731C0278031B1
:100048007E100900803128288F3128278031DE0072
:100058008F3129278031DF008F312A278031E00056
:100068008F312B278031E100F001F101F201F3011A
:10007800F4014A3084000030850014308F31322773
:100088008031A03084000030850015308F31322750
:1000980080317E1020008631002E0A308F316E2785
:1000A800803120002108D3002008D20009308F3188
:1000B8006E27803120002108D1002008D0000830A8
:1000C8008F316E27803120002108CF002008CE0014
:1000D80002305302EF3003195202031874287628AD
:1000E800013077280030AE00033051022130031967
:1000F8005002031880288228013083280030AF007E
:1001080002304F02EF3003194E0203188C288E2854
:1001180001308F280030B0000130DB0705305B026A
:10012800031C972898289928DB0104305B060319DB
:100138009E28A0280130A1280030B1002F080319FB
:10014800A628A728D0282E08031DAB28AC28D0281D
:100158003008031DB028B128D028DC01DA013108A5
:100168000319B728B828C4282830A5000030A600ED
:100178002830A7000030A80084316F2480315F2A1E
:100188003730A5000030A6003730A7000030A8009F
:1001980084316F2480315F2A2E080319D428D5288A
:1001A800FF282F080319D928DA28FF283008031D4B
:1001B800DE28DF28FF280130DC00DA0131080319C6
:1001C800E628E728F328C930A500FF30A600373015
:1001D800A7000030A80084316F2480315F2ABA302C
:1001E800A500FF30A6004630A7000030A8008431E3
:1001F8006F2480315F2A2E080319032904292E2928
:100208002F08031D082909292E293008031D0D2947
:100218000E292E290130DC00DA01310803191529CD
:1002280016292229C430A500FF30A6003C30A700BB
:100238000030A80084316F2480315F2AB030A500D7
:10024800FF30A6005030A7000030A80084316F248A
:1002580080315F2A2E08031D322933295D292F0892
:100268000319372938295D29300803193C293D2904
:100278005D29FF30DC00DA013108031944294529DA
:1002880051293730A5000030A600C930A700FF303B
:10029800A80084316F2480315F2A4630A5000030E1
:1002A800A600BA30A700FF30A80084316F2480313F
:1002B8005F2A2E08031D612962298C292F08031D36
:1002C800662967298C29300803196B296C298C2920
:1002D800FF30DC00DA0131080319732974298029F9
:1002E8003C30A5000030A600C430A700FF30A800AD
:1002F80084316F2480315F2A5030A5000030A60079
:10030800B030A700FF30A80084316F2480315F2A05
:100318002E08031990299129A2292F080319952934
:100328009629A229300803199A299B29A229DA01BA
:1003380031080319A029A129C428B8282E080319AF
:10034800A629A729142A2F08031DAB29AC29142A8A
:1003580030080319B029B129142ADA015C08803A57
:100368007F3E031CB829B929D62931080319BD29AC
:10037800BE29CA29BF30A500FF30A6004130A7001A
:100388000030A80084316F2480315F2ABF30A50077
:10039800FF30A6003C30A7000030A80084316F244D
:1003A80080315F2ADC1FD929DA29F7293108031996
:1003B800DE29DF29EB294130A5000030A600BF3037
:1003C800A700FF30A80084316F2480315F2A3C30B9
:1003D800A5000030A600BF30A700FF30A800843178
:1003E8006F2480315F2A31080319FB29FC29082A68
:1003F8003C30A5000030A6003C30A7000030A80023
:1004080084316F2480315F2A4130A5000030A60076
:100418004130A7000030A80084316F2480315F2A62
:1004280002305A020318192A1A2A552A0130DA0703
:100438005C08803A7F3E031C222A232A342A31088A
:100448000319272A282A51294B30A5000030A60075
:10045800B530A700FF30A80084316F2480315F2AAF
:10046800DC1F372A382A492A310803193C2A3D2A31
:10047800F328B530A500FF30A6004B30A7000030A8
:10048800A80084316F2480315F2ABA30A500FF307C
:10049800A600BA30A700FF30A80084316F2480314D
:1004A8005F2ADA010030A500A6000030A700A800E6
:1004B80084316F2480310800210020082000A80022
:1004C800A901210021082000AA00AB012A08AB00DD
:1004D800AA0128082A04AD0029082B04AE0021002F
:1004E80022082000A800A901210023082000AA0052
:1004F800AB012A08AB00AA0128082A04AF00290882
:100508002B04B0002D08243EB900FA302E3DBA0065
:100518002F08243EBB00FA30303DBC003A08803A30
:10052800A8007F302802031D9B2AFC303902031CD7
:100538009E2A9F2AB02A20003A08803AA8008030D4
:100548002802031DA92A053039020318AC2AAD2A4E
:10055800B02A2000B901BA0120003C08803AA8005E
:100568007F302802031DBA2AFC303B02031CBD2A37
:10057800BE2ACF2A20003C08803AA80080302802F2
:10058800031DC82A05303B020318CB2ACC2ACF2AE0
:100598002000BB01BC0105302000A0000030A100F4
:1005A8003A08A3003908A20086316A268231200061
:1005B8002108B6002008B5000530A0000030A100D1
:1005C8003C08A3003B08A20086316A26823120003D
:1005D8002108B8002008B70037083507BD003808DB
:1005E800363DBE0037083502BF003808363BC0002C
:1005F8003E08803AA80080302802031D052B65308C
:100608003D02031C082B092B0E2B64302000BD0073
:100618000030BE0020003E08803AA8007F30280243
:10062800031D182B9C303D0203181B2B1C2B212B60
:100638009C302000BD00FF30BE0020004008803AFA
:10064800A80080302802031D2B2B65303F02031CB5
:100658002E2B2F2B342B64302000BF000030C0001D
:1006680020004008803AA8007F302802031D3E2B56
:100678009C303F020318412B422B472B9C30200013
:10068800BF00FF30C00020003D083E04031D4D2B75
:100698004E2B512BB101B2016A2B3E08803AA800BB
:1006A80080302802031D5A2B01303D02031C5D2BAC
:1006B8005E2B642B01302000B1003D08B2006A2B8C
:1006C80002302000B1003D03FF3AB2003F08400469
:1006D800031D6F2B702B732BB301B4018C2B4008B7
:1006E800803AA80080302802031D7C2B01303F028D
:1006F800031C7F2B802B862B01302000B3003F0882
:10070800B4008C2B02302000B3003F03FF3AB40042
:100718003208A1003308A2003408A3003108873149
:10072800072782310800210028082000A200A30121
:10073800210029082000A400A5012408A500A4017F
:1007480022082404A70023082504A80021002A0859
:100758002000A200A30121002B082000A400A5016D
:100768002408A500A40122082404A90023082504BC
:10077800AA00D0302706073003192806031DC52B09
:10078800C62BD02BD0302906073003192A06031DA3
:10079800CE2BCF2BD02B6E2C21002C082000A200B2
:1007A800A30121002D082000A400A5012408A5000C
:1007B800A40122082404AB0023082504AC00DC3083
:1007C8002B06053003192C06031DEB2BEC2B0F2CE5
:1007D800210013141318F12BF22BEE2B0D08200017
:1007E800CD0021000C082000CC0001304D027C30E7
:1007F80003194C020318012C022C0D2C01304D0258
:100808002D3003194C02031C0A2C0B2C0D2C16102E
:100818006E2C16146E2CD0302B06073003192C06BC
:10082800031D172C182C6E2C1610210030082000E0
:10083800A200A301210031082000A400A50124087A
:10084800A500A40122082404AE0023082504AF0053
:1008580004302F02903003192E020318342C352C43
:10086800382C0130AD006A2C05302F0236300319C0
:100878002E020318402C412C442C0230AD006A2C67
:1008880005302F02DD3003192E0203184C2C4D2C95
:10089800502C0330AD006A2C06302F028430031927
:1008A8002E020318582C592C5C2C0430AD006A2CED
:1008B80007302F022A3003192E020318642C652CE6
:1008C800682C0530AD006A2C0630AD002D08873144
:1008D8003B278331080020002608803AA900803091
:1008E8002902031D792C65302502031C7C2C7D2CE4
:1008F800822C64302000A5000030A60020002608C5
:10090800803AA9007F302902031D8C2C9C302502D7
:1009180003188F2C902C952C9C302000A500FF30BC
:10092800A60020002808803AA90080302902031D6B
:100938009F2C65302702031CA22CA32CA82C643002
:100948002000A7000030A80020002808803AA9004D
:100958007F302902031DB22C9C3027020318B52CC6
:10096800B62CBB2C9C302000A700FF30A80020002C
:1009780025082604031DC12CC22CC52CAA01AB01D5
:10098800DE2C2608803AA90080302902031DCE2CCF
:1009980001302502031CD12CD22CD82C0130200088
:1009A800AA002508AB00DE2C02302000AA0025038F
:1009B800FF3AAB0027082804031DE32CE42CE72C9E
:1009C800AC01AD01002D2808803AA9008030290229
:1009D800031DF02C01302702031CF32CF42CFA2CF5
:1009E80002302000AC002708AD00002D01302000A7
:1009F800AC002703FF3AAD002B08A1002C08A20089
:100A08002D08A3002A088731072784310800F80039
:100A1800752DFE307806031D122D132D942D0130EF
:100A2800F300942D1930780603191B2D1C2D1E2D4B
:100A3800F301942D0230F300942D7808F500F601A7
:100A480075082000D8007608D9000330F300942DEB
:100A58007808F500F6017508F600F501750820001C
:100A6800D8047608D9040430F300942D7808F500EA
:100A7800F60175082000D6007608D7000530F30087
:100A8800942D7808F500F6017508F600F50175084B
:100A98002000D6047608D704D401D5015608570497
:100AA800031D572D582D5C2D8731E52785311C2DC9
:100AB8000630F300942D20005408A03E86008701DC
:100AC800780881000130D4070030D53D5708550219
:100AD800031D702D56085402031C732D742D942D7C
:100AE800582D7308F500F6017608003A03197D2D94
:100AF8001C2D7508003A03190D2D013A0319162DFE
:100B0800033A0319212D013A03192C2D073A031929
:100B18003A2D013A0319452D033A03195F2D1C2D6F
:100B28000800210028082000A200A30121002908AC
:100B38002000A400A5012408A500A401220824047B
:100B4800A70023082504A80021002E082000A200E1
:100B5800A30121002F082000A400A5012408A50056
:100B6800A40122082404A90023082504AA00D030DF
:100B78002706073003192806031DC32DC42DFF2D92
:100B8800D0302906073003192A060319CC2DCD2D9C
:100B9800CE2DFF2D210032082000A200A301210044
:100BA80033082000A400A5012408A500A4012208F8
:100BB8002404AC0023082504AD0005302D0236308E
:100BC80003192C020318E92DEA2DED2D0130AB0095
:100BD800FB2D06302D02833003192C020318F52D46
:100BE800F62DF92D0230AB00FB2D0330AB002B089E
:100BF80087319B27853108008F31442786318F3113
:100C0800BB27863105302000C2000F30C100F1300B
:100C1800890B0C2EC10B0C2EC20B0C2E8F319D276D
:100C2800863120005D0803191A2E1B2E062EDD01C1
:100C3800210028082000C100C20121002908200045
:100C4800C300C4014308C400C30141084304C600EB
:100C580042084404C70021002A082000C100C2013C
:100C680021002B082000C300C4014308C400C301AD
:100C780041084304C80042084404C900E830460655
:100C8800033003194706031D4A2E4B2E582ED03029
:100C98004806073003194906031D532E542E582EB3
:100CA8008F31242786315B2E82316022863186314E
:100CB800C626863185319525863187316C27863160
:100CC800833197238631062E803126282000A501FE
:100CD800A11F6F2E702E772EA009A109A00A031953
:100CE800A10A0130A500A31F7A2E7B2E822EA2090D
:100CF800A309A20A0319A30A0130A506A601A701A0
:100D0800200821040319892E8A2EB72E0130A40049
:100D1800942E0130A035A10D890B8E2E0130A40729
:100D2800A11F972E982E8D2E0130A635A70D890B61
:100D3800992E21082302031DA32E20082202031C3A
:100D4800A62EA72EAC2E2008A2022108A33B26140B
:100D58000130A136A00C890BAD2E0130A402031D71
:100D6800B62EB72E982E25080319BB2EBC2EC12EE1
:100D7800A609A709A60A0319A70A2708A100260891
:100D8800A0000800210028082000A000A1012100DF
:100D980029082000A200A3012208A300A20120081C
:100DA8002204A50021082304A60021002A08200007
:100DB800A000A10121002B082000A200A301220805
:100DC800A300A20120082204A70021082304A800E8
:100DD800A901D0302506073003192606031DF52E74
:100DE800F62E012FD0302706073003192806031DD9
:100DF800FE2EFF2E012F0130A900290C031C16100E
:100E08000318161408002000A400FE308F3138277C
:100E1800873119308F313827873101308F313827A2
:100E2800873106308F313827873104308F313827A2
:100E3800873100308F3138278731200024088F31DF
:100E480038278731200021088F3138278731200043
:100E580022088F3138278731200023088F3138271F
:100E6800873122009E1C392F3A2F352F0800200089
:100E7800A100FE308F313827873119308F3138275C
:100E8800873101308F31382787310A308F31382741
:100E9800873104308F313827873100308F31382738
:100EA800873103308F313827873100308F31382729
:100EB8008731200021088F313827873100308F3162
:100EC8003827873122009E1C6A2F6B2F662F080057
:100ED800210024082000A200A301210025082000E9
:100EE800A400A5012408A500A40122082404A70041
:100EF80023082504A80006302802D6300319270243
:100F0800031C872F882F8D2F01308F31DD278731E4
:100F18009A2F04302802E330031927020318952F6B
:100F2800962F9A2F00308F31DD2787310800200057
:100F3800A100FE308F313827873119308F3138279B
:100F4800873103308F31382787310A308F3138277E
:100F5800873101308F313827873100308F3138277A
:100F68008731200021088F313827873122009E1CC5
:100F7800BE2FBF2FBA2F08002E00901070087104E2
:100F88000319C72FC82FE42F01302000CA070030EB
:100F9800CB3D71084B02031DD32F70084A02031C76
:100FA800D62FD72FE42FCA01CB010310181D031425
:100FB8000318DF2FE22F20001815E42F2000181146
:100FC8000800EC2F0130F400FF2F0130DD00FF2F67
:100FD80020005908043A0319F52F013A0319FA2F8A
:100FE800FF2F5808023A0319E62FFF2F5808023A34
:080FF8000319E92FFF2F080087
:101E4800803151208F310800283400345434013453
:101E58003E00B81020009110961008006400800120
:101E68000131890B332F00342000A0002E000F1EF3
:101E78003E2F3F2F3A2F2000200822009A0008000A
:101E8800200011103E0038102000161091163E0058
:101E9800B8128F312C278F318F3185278F318F31B1
:101EA80057278F310800200012143E0043142000E9
:101EB80092143E00C314200012153E004315FC3056
:101EC80021009A051A123F30980401309D0013151D
:101ED800931708002000A200220821009E000D3060
:101EE800890B742F00002100131413187C2F7D2FE9
:101EF800792F0D082000A10021000C082000A00067
:101F080008003E0038102000111016103E0043163D
:101F1800200012163F3021009804FC309A051A124E
:101F28000C309E0001309D00931713150B178B176B
:101F38000800FE308F3138278F3119308F3138271C
:101F48008F3101308F3138278F3105308F31382765
:101F58008F3100308F3138278F3100308F3138275B
:101F68008F3122009E1CB92FBA2FB52F08002200EE
:101F78001E129D179E161D1655303D008F00AA3063
:101F88008F000F10200013133E004E131030A600D0
:101F9800200093163E00CE1215303D00CB002200E3
:101FA8001E159F1544309B002E0099160B178B1792
:101FB80008002000A1002E009A1020009614210885
:101FC8000319E72FE82FF22F15302000A000C630A4
:101FD800890BEC2FA00BEC2F0000FB2F0B302000FF
:101FE800A0006230890BF62FA00BF62F000020000E
:081FF80096102E009A14080057
:020000040001F9
:0A000E008C1FFF3F9F3FFF3FFF3FA5
:00000001FF
