:0400000080311E2805
:100008007E14803100308600003087002E008F1E5D
:100018000E280F281C2822001908F9009D1C1528F5
:10002800162818281D121D16790881316121803182
:100038007E10090080312028F001F101F201F3015E
:10004800F4014330840000308500193083312D23BA
:1000580080317E10200082317A2A20004308A800CF
:10006800A9014408AA00AB012A08AB00AA01280884
:100078002A04AD0029082B04AE004508A800A901F0
:100088004608AA00AB012A08AB00AA0128082A04DE
:10009800AF0029082B04B0002D08243EB900FA301F
:1000A8002E3DBA002F08243EBB00FA30303DBC007C
:1000B8003A08803AA8007F302802031D6528FC30E2
:1000C8003902031C682869287A2820003A08803AEF
:1000D800A80080302802031D732805303902031850
:1000E800762877287A282000B901BA0120003C0830
:1000F800803AA8007F302802031D8428FC303B0288
:10010800031C87288828992820003C08803AA800E2
:1001180080302802031D922805303B0203189528D9
:10012800962899282000BB01BC0105302000A000BA
:100138000030A1003A08A3003908A2008131EA2161
:10014800803120002108B6002008B5000530A00045
:100158000030A1003C08A3003B08A2008131EA213D
:10016800803120002108B8002008B700370835077B
:10017800BD003808363DBE0037083502BF003808D4
:10018800363BC0003E08803AA80080302802031D94
:10019800CF2865303D02031CD228D328D8286430E4
:1001A8002000BD000030BE0020003E08803AA800B4
:1001B8007F302802031DE2289C303D020318E52801
:1001C800E628EB289C302000BD00FF30BE00200050
:1001D8004008803AA80080302802031DF5286530C1
:1001E8003F02031CF828F928FE2864302000BF00CD
:1001F8000030C00020004008803AA8007F30280264
:10020800031D08299C303F0203180B290C291129CA
:100218009C302000BF00FF30C00020003D083E0495
:10022800031D172918291B29B101B20134293E08D9
:10023800803AA80080302802031D242901303D029D
:10024800031C272928292E2901302000B1003D0848
:10025800B200342902302000B1003D03FF3AB20059
:100268003F084004031D39293A293D29B301B40147
:1002780056294008803AA80080302802031D4629E4
:1002880001303F02031C49294A2950290130200026
:10029800B3003F08B400562902302000B3003F03E2
:1002A800FF3AB4003208A1003308A2003408A300C2
:1002B80031088231462280310800F800CA29FE3010
:1002C8007806031D68296929E9290130F200E9291E
:1002D800193078060319712972297429F201E9295C
:1002E8000230F200E9297808F500F60175082000C7
:1002F800DA007608DB000330F200E9297808F50017
:10030800F6017508F600F50175082000DA0476088C
:10031800DB040430F200E9297808F500F6017508D5
:10032800F0007608F1000530F200E9297808F500B8
:10033800F6017508F600F5017508F0047608F10471
:100348002000D801D90170087104031DAC29AD291A
:10035800B1298231FC22813172290630F200E92963
:1003680020005808433E8600870178088100013044
:10037800D8070030D93D71085902031DC5297008F6
:100388005802031CC829C929E929AD297208F500B2
:10039800F6017608003A0319D22972297508003A3D
:1003A80003196329013A03196C29033A03197729B8
:1003B800013A03198229073A03199029013A0319C6
:1003C8009A29033A0319B429722908002000A501C3
:1003D800A11FEF29F029F729A009A109A00A0319EB
:1003E800A10A0130A500A31FFA29FB29022AA209A4
:1003F800A309A20A0319A30A0130A506A601A701A9
:10040800200821040319092A0A2A372A0130A400DE
:10041800142A0130A035A10D890B0E2A0130A4073A
:10042800A11F172A182A0D2A0130A635A70D890BF6
:10043800192A21082302031D232A20082202031C4B
:10044800262A272A2C2A2008A2022108A33B2614A0
:100458000130A136A00C890B2D2A0130A402031DFE
:10046800362A372A182A250803193B2A3C2A412A02
:10047800A609A709A60A0319A70A2708A10026089A
:10048800A00008002000A400FE3083311723823129
:100498001930833117238231013083311723823198
:1004A8000630833117238231043083311723823198
:1004B8000030833117238231200024088331172329
:1004C800823120002108833117238231200022083D
:1004D8008331172382312000230883311723823187
:1004E80022009E1C782A792A742A08008331232343
:1004F800823182319E22823105302000C2000F30C5
:10050800C100F130890B862AC10B862AC20B862AC4
:100518008231DE22823174080319932A942A802AB0
:10052800F4018031312082318231C0228231802A27
:1005380080311E2822001E129D179E161D1655304A
:100548003D008F00AA308F000F10200013133E00CB
:100558004E131030A600200093163E00CE12153020
:100568003D00CB0022001E159F1544309B002E0035
:1005780099160B178B17080020004B08A000A10143
:100588004C08A200A3012208A300A201200822040B
:10059800A50021082304A600E83025060330031926
:1005A80026060319D82ADB2A20001614DD2A200083
:1005B80016100800FE308331172382311930833139
:1005C800172382310130833117238231053083317B
:1005D8001723823100308331172382310030833171
:1005E8001723823122009E1CFA2AFB2AF62A0800C9
:1005F800032B0130F300162B0130F400162B2000DA
:100608005B08043A03190C2B013A0319112B162B1A
:100618005A08023A0319FD2A162B5A08023A0319F6
:10062800002B162B08002000A0002E000F1E1D2BEB
:100638001E2B192B2000200822009A0008002000F9
:1006480011103E0038102000161091163E00B81206
:0E0658000800640080010131890B2E2B003454
:020000040001F9
:0A000E008C1FFF3F9F3FFF3FFF3FA5
:00000001FF
